:100000000C943D030C94D0160C94A9160C94650323
:100010000C9465030C9465030C9478080C946503A8
:100020000C9465030C9465030C9465030C946503B0
:100030000C9465030C9465030C9465030C946503A0
:100040000C945F160C9465030C941D170C94F71612
:100050000C9465030C9465030C9465030C94650380
:100060000C94EA1A0C94650300407A10F35A00A02D
:10007000724E18090010A5D4E80000E87648170071
:1000800000E40B54020000CA9A3B000000E1F505B1
:10009000000080969800000040420F000000A086FB
:1000A00001000000102700000000E803000000002D
:1000B0006400000000000A000000000001000000D1
:1000C00000002C76D888DC674F0823DFC1DFAE59EB
:1000D000E1B1B796E5E3E453C63AE651997696E87E
:1000E000E6C28426EB898C9B62ED407C6FFCEFBC02
:1000F0009C9F40F2BAA56FA5F490055A2AF75C932D
:100100006B6CF9676DC11BFCE0E40D47FEF520E662
:10011000B500D0ED902E0300943577050080841E45
:10012000080000204E0A000000C80C333333330FA0
:10013000986E12831141EF8D2114893BE65516CF3D
:10014000FEE6DB18D1844B381BF77C1D901DA4BB49
:10015000E424203284725E228100C9F124ECA1E5FE
:100160003D2754534D3A494E49540A002154534DAA
:100170003A494E49543A545350204641494C0A009A
:1001800054534D3A494E49543A545350204F4B0A18
:100190000054534D3A465041520A002154534D3AAF
:1001A000465041523A4E4F205245504C590A002178
:1001B00054534D3A465041523A4641494C0A005434
:1001C000534D3A465041523A4F4B0A0054534D3A20
:1001D00049443A5245510A0054534D3A49440A00A1
:1001E0002154534D3A49443A4641494C0A0054532C
:1001F0004D3A49443A4F4B0A0054534D3A55504CEE
:100200000A002154534D3A55504C3A4641494C0A44
:100210000054534D3A55504C3A444757432C4F3DA8
:1002200025642C4E3D25640A0054534D3A55504CDC
:100230003A4F4B0A0054534D3A52454144593A49BA
:10024000443D25642C5041523D25642C4449533D86
:1002500025640A002154534D3A52454144593A55B8
:10026000504C204641494C2C534E500A0054534D9B
:100270003A4641494C3A5044540A0054534D3A4688
:1002800041494C3A434E543D25640A0054534D3A7B
:100290004641494C3A52452D494E49540A0054535F
:1002A000463A5349443A4F4B2C49443D25640A0091
:1002B000215453463A5349443A4641494C2C494407
:1002C0003D25640A0025735453463A4D53473A532B
:1002D000454E442C25642D25642D25642D25642C44
:1002E000733D25642C633D25642C743D25642C707E
:1002F000743D25642C6C3D25642C73673D25642C6E
:1003000066743D25642C73743D25733A25730A0089
:10031000215453463A5254453A256420554E4B4E8B
:100320004F574E0A00215453463A5254453A4650CC
:100330004152204143544956450A00215453463AFC
:10034000534E443A544E520A004D434F3A52454799
:100350003A5245510A005453463A5755523A4D5372
:100360003D256C750A004D434F3A42474E3A494E7F
:100370004954204F4B2C5453503D25640A004D43A3
:100380004F3A42474E3A5354500A004D434F3A4277
:10039000474E3A4246520A004D434F3A42474E3A80
:1003A000494E49542052455045415445522C4350E2
:1003B0003D524E4E52412D2D2C5645523D322E313E
:1003C0002E310A005453463A4352543A4F4B0A00D6
:1003D0004D434F3A50494D3A524F555445204E3DAA
:1003E00025642C523D25640A004D434F3A50494D37
:1003F0003A4E4F4445205245473D25640A00545328
:10040000463A504E473A53454E442C544F3D25648E
:100410000A00215453463A504E473A4143544956F4
:10042000450A005453463A434B553A4641494C0A13
:10043000005453463A434B553A444757432C4F3D9B
:1004400025642C4E3D25640A005453463A434B55CF
:100450003A4F4B0A005453463A434B553A4F4B2CB4
:10046000464354524C0A005453463A4D53473A526D
:10047000454C2050784E472C48503D25640A005486
:1004800053463A4D53473A52454C204D53470A0084
:100490005453463A4D53473A465744204243204D21
:1004A00053470A00215453463A4D53473A47574C55
:1004B000204641494C0A005453463A4D53473A4767
:1004C000574C204F4B0A005453463A4D53473A4637
:1004D000504152205245512C49443D25640A005454
:1004E00053463A4D53473A42430A005453463A4D15
:1004F00053473A41434B0A00215453463A4D534720
:100500003A504F4E4720524543562C494E41435492
:100510004956450A005453463A4D53473A504F4EB8
:100520004720524543562C48503D25640A005453F9
:10053000463A4D53473A50494E4745442C49443D6D
:1005400025642C48503D25640A00215453463A4DF9
:1005500053473A4650415220494E4143544956452B
:100560000A005453463A4D53473A46504152204FA1
:100570004B2C49443D25642C443D25640A005453CA
:10058000463A4D53473A41434B205245510A0021C8
:100590005453463A4D53473A505645522C25643DE4
:1005A00025640A00215453463A4D53473A4C454E70
:1005B0002C2564213D25640A005453463A4D534787
:1005C0003A524541442C25642D25642D25642C7315
:1005D0003D25642C633D25642C743D25642C70748A
:1005E0003D25642C6C3D25642C73673D25643A25BC
:1005F000730A00215453463A53414E3A4641494CFE
:100600000A005453463A53414E3A4F4B0A000000F9
:100610000000240027002A0000000008000201005A
:10062000000304070000000000000000214D434FBC
:100630003A534E443A4E4F4445204E4F5420524573
:10064000470A00010204081020408001020408103B
:100650002001020408102000000000250028002BC3
:10066000000404040404040404020202020202035B
:10067000030303030300031DF31C11241FBECFEF6C
:10068000D8E0DEBFCDBF12E0A0E0B1E0E2ECF3E5E0
:1006900002C005900D92A430B107D9F725E0A4E07F
:1006A000B2E001C01D92A333B207E1F713E0CCE33F
:1006B000D3E004C02197FE010E94D928CB33D10793
:1006C000C9F70E94181C0C94D4290C9400000895BA
:1006D00091E59CBD91E09DBD2A98E3E2F0E0319761
:1006E000F1F78EBD00000DB407FEFDCF8EB5FB0106
:1006F0009FEF4150C8F0222361F09EBD00000DB471
:1007000007FEFDCF8EB56115710599F38083319693
:10071000F0CFDF01119680818EBD00000DB407FE81
:10072000FDCF8EB5FD01E5CF2A9AE3E2F0E03197E7
:10073000F1F7089520E040E060E070E00C94680379
:10074000E0911E02F0911F020280F381E02D3097AC
:1007500009F009958091280284FD0C94100D0895EC
:100760000F931F930E941D160091200210912102E9
:100770002091220230912302601B710B820B930B9C
:100780001F910F9108959C0180911E0290911F026C
:100790008217930751F0909128029F71909328023D
:1007A00030931F0220931E0205C080912802805EB4
:1007B00080932802E0911E02F0911F020190F081C7
:1007C000E02D309709F009950E941D1660932002D4
:1007D0007093210280932202909323020895EF9256
:1007E000FF920F931F93CF93DF93CDB7DEB7C85718
:1007F000D1090FB6F894DEBF0FBECDBF8E010F57E3
:100800001F4FF801E190F1908F010E941D164AE000
:100810000E94AE198DEB91E00E94AC199801A701DE
:1008200068E770E0CE0101960E942921CE01019671
:100830000E94AC198EED92E00E940C14C858DF4F54
:100840000FB6F894DEBF0FBECDBFDF91CF911F91E1
:100850000F91FF90EF9008958F929F92AF92BF9269
:10086000CF92DF92EF92FF920F931F93CF93DF937C
:100870008C01DC011296CC918091280280FF0CC083
:10088000CF3F51F185E293E09F938F930E94EF0356
:100890000F900F90D0E0F8C0C11103C0C091DC02EE
:1008A0001BC0CF3FC9F08C2F90E003960E94802799
:1008B0008F3F89F41F92CF9380E193E09F938F93B2
:1008C0000E94EF038091DC020F900F900F900F9029
:1008D000F80190819813C82F8091DB02D8018C9386
:1008E00013964C9142FD06C0469546954695D7E035
:1008F000D40F01C0D0E280E090E0892B21F080E0AD
:1009000090E00E940000299883E092E00197F1F7BF
:100910006EE080E20E94F20C8BE891E00197F1F723
:100920006C2F8AE20E94F20C6C2F80E30E94F20C82
:1009300081EE0E949A03CF3F11F080EA01C080EB64
:100940004D2FD13208F040E220E0B8010E94680348
:10095000299AE12CF12C8FEF0E949A03D82F8073F3
:1009600021F4B1E0EB1AF108B1F7299860E387E2CE
:100970000E94F20CD4FF03C081EE0E949A030E94F1
:10098000030DD5FBDD27D0F981E0CF3F09F080E0F2
:10099000D82BC8010E948617D11103C0ECE5F1E005
:1009A00002C0E9E5F1E0609129026F70D801139669
:1009B0002C91139722FBAA24A0F8322F3695369556
:1009C000369514962C911497B22EB294B69447E0B3
:1009D000B4221596CC90159727701696DC90169732
:1009E0001296EC9012978C2E912CFC9011967C9183
:1009F000D11103C041E651E002C043E951E09F93A9
:100A00008F93FF93EF931F926F931F92AF921F925A
:100A10003F931F92BF921F92CF921F922F931F92CC
:100A2000DF921F92EF929F928F921F92FF921F92DE
:100A30007F935F934F9385EC92E09F938F930E94F7
:100A4000EF03EDB7FEB77E960FB6F894FEBF0FBE6C
:100A5000EDBF8091DC02C81317C0D11110C080E037
:100A600090E0892B21F085E690E00E9400008091C3
:100A7000290291E0980F9F70807F892B03C080919D
:100A80002902807F809329028D2FDF91CF911F91C2
:100A90000F91FF90EF90DF90CF90BF90AF909F901D
:100AA0008F9008952091280222FD0C942C048BE352
:100AB00093E09F938F930E94EF030F900F9080E03D
:100AC0000895CF93C82F8FEF8C0F8E3F08F5C093FA
:100AD000DB02C093180163E082E20E94F20C61E045
:100AE00081E20E94F20C0E94030D6C2F80E090E0E6
:100AF0000E9498271F92CF938EE992E09F938F9345
:100B00000E94EF030F900F900F900F9081E018C09C
:100B10001F92CF9380EB92E09F938F930E94EF03FD
:100B20000F900F900F900F9080E090E0892B21F0B4
:100B30008EE690E00E9400008FEF8093DB0280E061
:100B4000CF9108950F931F930E94B0032091290223
:100B50002077203729F000E117E220E030E004C0E0
:100B600000E61AEE20E030E00617170728073907DD
:100B700070F48CE892E09F938F930E94EF030F90A4
:100B80000F9089E191E01F910F910C94C3031F9185
:100B90000F91089580912902982F9077903759F0FE
:100BA000982F92959F709F5F97709295907F8F7806
:100BB000892B8093290280912902829587701F9248
:100BC0008F938BE792E09F938F930E94EF03809126
:100BD00028028B7F8F7E809328020F900F900F90BA
:100BE0000F9080E090E0892B21F087E690E00E9452
:100BF00000008DE692E09F938F930E94EF03299867
:100C00000F900F906CE080E20C94F20C809129021E
:100C10008F708B3060F084E592E09F938F930E94F9
:100C2000EF030F900F9084E191E00C94C3030895BB
:100C30008091DD021F928F938091DC021F928F932F
:100C40008091DB021F928F9385E392E09F938F93B5
:100C50000E94EF0380912802846080932802809193
:100C60002902807880932902E0910502F091060222
:100C70008DB79EB708960FB6F8949EBF0FBE8DBF76
:100C8000309709F00994089580912A028F3F79F1F5
:100C90000E941D1660932402709325028093260201
:100CA0009093270289E292E09F938F930E94EF0333
:100CB00090912A028091DD020F900F909817A1F079
:100CC0001F929F931F928F9381E192E09F938F9346
:100CD0000E94EF0380912A028093DD020F900F9013
:100CE0000F900F900F900F9080E191E025C00E942F
:100CF000B003613D77408105910500F180912802A4
:100D0000803618F48CE091E017C082E092E09F9367
:100D10008F930E94EF0380912802877F809328029F
:100D20000F900F9080E090E0892B21F08AE690E010
:100D30000E94000084E191E00C94C303089589EFC0
:100D400091E09F938F930E94EF030F900F9080E0AC
:100D500090E0892B21F088E090E00E9400008FEF66
:100D600080932A028091280288608093280228E1DB
:100D700043E06FEF80E00E944F1761E00E94E60BB6
:100D80000C942C048091DB028F3F99F08EEE91E061
:100D90009F938F930E94EF030F900F9080E090E05D
:100DA000892B21F087E090E00E9400008CE091E028
:100DB00020C00E94B003613D774081059105D8F0C5
:100DC00080912802803618F488E091E012C080EE0D
:100DD00091E09F938F930E94EF030F900F9080E01C
:100DE00090E0892B21F089E690E00E94000087E2E4
:100DF00091E00C94C303089588ED91E09F938F9345
:100E00000E94EF030F900F908091DB028F3FE1F47F
:100E100080E090E0892B21F086E090E00E940000C5
:100E20008CEC91E09F938F930E94EF0323E043E0CB
:100E30006FEF80E00E944F1763E971E00E94F20BB0
:100E40000F900F900C942C0408950E94B003613D04
:100E500077408105910520F48091280281FF089553
:100E60008091DC028F3FC1F08FEB91E09F938F93D5
:100E70000E94EF03809128028E7F809328020F90BA
:100E80000F9080E090E0892B21F085E090E00E94B7
:100E9000000088E091E021C080912802803658F45B
:100EA0008BE991E09F938F930E94EF030F900F9037
:100EB00084E191E012C08FEA91E09F938F930E94AA
:100EC000EF030F900F9080E090E0892B21F088E6EF
:100ED00090E00E94000087E291E00C94C30381E956
:100EE00091E09F938F930E94EF030F900F9080E00B
:100EF00090E0892B21F084E090E00E940000809136
:100F00002802897F8160809328028FEF8093DD0221
:100F10008093DC0227E043E06FEF0E944F1763E904
:100F200071E00E94F20B0C942C04CF93219A229A28
:100F3000CFB7F89480910402811127C0EBE6F6E068
:100F40008491EDE4F6E09491E82FF0E0EE0FFF1FBE
:100F5000E25FF94FA591B491EC91E92321F461E0AE
:100F60008AE00E94361561E08AE00E9482158CB505
:100F700080618CBD8CB580648CBD61E08DE00E9489
:100F8000821561E08BE00E948215809104028F5FE0
:100F900080930402CFBF29982A9A6EE080E20E94D3
:100FA000F20C65E070E080E090E00E94E31563E001
:100FB00083E20E94F20C6FE584E20E94F20C6CE482
:100FC00085E20E94F20C67E286E20E94F20C63E77F
:100FD00080E50E94F20C66E08DE30E94F20C0E9414
:100FE000D70C882309F446C062E082E20E94F20C2A
:100FF00060E081E20E94F20C63E08CE30E94F20C5C
:101000008FEF8093030120E045E063E071E08BE225
:101010000E94680320E045E063E071E08AE20E94FC
:10102000680320E045E063E071E080E30E9468032C
:1010300082EE0E949A0381EE0E949A0360E787E2A3
:101040000E94F20C80E891E09F938F930E94EF033F
:10105000809128028061809328028091DB020F90AA
:101060000F908F3FC1F00E946105811114C087E28B
:1010700091E013C08CE691E09F938F930E94EF0361
:101080000F900F9080E090E0892B89F387E690E045
:101090000E940000ECCF84E191E0CF910C94C30357
:1010A00082E691E09F938F930E94EF03E8E2F2E0E3
:1010B0008081877F8F7E8083109224021092250288
:1010C00010922602109227020E941D1660932B0296
:1010D00070932C0280932D0290932E020F900F900C
:1010E00043E050E060E070E08BED92E00C947027FC
:1010F0001F920F920FB60F9211240F900FBE0F90F8
:101100001F901895FC0184818F7180648483838192
:1011100087708061838370876783CF010895EF9222
:10112000FF920F931F93CF93DF93EC018D8190E09B
:101130008832910509F06CC08C8182958695877004
:10114000E9F42796D9F0FE0101900020E9F73197E4
:101150008F010C1B1D0BB8016F5F7F4F80E090E08B
:101160000E94DF287C01009749F0FC011082BE013B
:101170000E94BE290230110540F402C0E12CF12C7E
:101180001092150285E192E002C0C701019640E18C
:1011900050E060E070E00E94571F9B0133273093BE
:1011A000260120932501072F10E010931D020093C4
:1011B0001C0290E0909324018093230181E08093AE
:1011C0001B02E114F10419F027E633E002C020E02D
:1011D00030E09091500497709860909350049091F3
:1011E00051049F7190629093510481E0232B09F484
:1011F00080E0809354048DE494E00E94111AC701AA
:10120000DF91CF911F910F91FF90EF900C94BF1E33
:101210008330910599F5CE0107960E9468208C01D4
:1012200083E691E00E94AC19C8010E9496148E8159
:10123000833009F06BC0101611063CF010922201A9
:10124000109221010E94BE1212C02FEF30E0D8018F
:101250000E94D22824E630E040E050E00E94DC27E3
:10126000822F20932101309322010E94591981E09D
:1012700080931B02B8018CE294E03EC0489709F0CD
:1012800045C0CE0107960E9468208C018E81813076
:1012900069F410931A020093190280931802B8019E
:1012A0008EE694E00E9482080E94111A8E81863098
:1012B00059F41093170200931602B80189EC93E0D9
:1012C0000E9482080E94111A8E81873059F410936F
:1012D000200100931F01B80188EA93E00E94820870
:1012E0000E94111A8E81883089F410931E01009398
:1012F0001D01B80187E893E00E948208DF91CF9139
:101300001F910F91FF90EF900C94111ADF91CF91E4
:101310001F910F91FF90EF9008958F929F92AF923F
:10132000BF92EF92FF920F931F93CF93DF930E9490
:101330001D1600911102109112022091130230919A
:101340001402DC01CB01801B910BA20BB30B813685
:101350009A4EA105B10508F469C00E941D1660935C
:10136000110270931202809313029093140281E190
:101370000E941C150E94081580FDFCCF0E94CF140E
:101380009695879596958795BC0180E090E00E94A0
:10139000512620E030E040E05DE30E94B22620E0EC
:1013A00030E048E452E40E944C284B015C019B0170
:1013B000AC010E94B928882309F444C18AE691E06F
:1013C0000E949A1981E991E00E949A1981E00E9495
:1013D0001C150E94081580FDFCCF0E94CF1424E04C
:1013E000969587952A95E1F7BC0180E090E00E94F0
:1013F000512620E030E040E85DE30E94B22620E084
:1014000030E040EC51E40E944C284B015C019B0110
:10141000AC010E94B928882309F446C184E991E00F
:101420000E949A1981E991E00E949A19209119026B
:1014300030911A02809118022115310539F4882360
:1014400029F00E94BE121092180266C121303105A7
:1014500009F04AC0811105C080911B02882309F45C
:101460005BC120912101309122012115310509F440
:1014700053C1409125015091260160911C02709149
:101480001D0280912301909124010E94891288EB12
:1014900091E00E94AC1980912301909124010E9457
:1014A00096148FEB91E00E94AC1980911C029091F0
:1014B0001D020E94961488EC91E00E94AC19809164
:1014C0002501909126010E94961480ED91E00E94E2
:1014D000AC1980912101909122010E9496141092E2
:1014E000180210921B0218C12230310509F05AC0AF
:1014F0008111109218028EED91E00E94AC1980913A
:101500001D0190911E010E94961480901D0100E023
:1015100010E0912CA12CB12CE12CF12CC0E0D0E0FA
:101520006091910470919204C617D70768F5C701BE
:101530000E94BE28462F400F4095453550F4642F39
:10154000660F460F842F809550E060E070E0682BB6
:10155000DDC04A3A58F44555942F990F940F492FFE
:10156000409550E060E070E0592BD0C04A5A642F9B
:10157000660F460F842F809550E060E070E0BA015E
:1015800055274427582BC2C00E943618C501B40104
:101590000E94E3150F5F1F4F011585E0180709F042
:1015A000BBCFBAC02430310509F0B6C0882351F052
:1015B00010921802809116029091170290930802DF
:1015C00080930702C0910702D091080280911F0109
:1015D000909120018C179D070CF49EC0409125012D
:1015E0005091260160911C0270911D029E01809114
:1015F0002301909124010E94891220911D013091B4
:101600001E0188EE93E0289FB001299F700D389F3E
:10161000700D1124072E000C880B990B0E94E31506
:10162000CE0101969093080280930702DF91CF913B
:101630001F910F91FF90EF90BF90AF909F908F9070
:101640000C94961420910D0230910E0240910F02DD
:1016500050911002C501B4010E944C26882309F460
:10166000B5CE80920D0290920E02A0920F02B0921F
:10167000100280910E048770886280930E0480911E
:101680000F04806E80930F048092120490921304D2
:10169000A0921404B092150481E0809316048BE0AC
:1016A00094E00E94111A92CE2091090230910A0210
:1016B00040910B0250910C02C501B4010E944C26CE
:1016C000882309F4B3CE8092090290920A02A09274
:1016D0000B02B0920C028091ED03877088628093B8
:1016E000ED038091EE03806E8093EE038092F10310
:1016F0009092F203A092F303B092F40381E08093FE
:10170000F5038AEE93E00E94111A90CECE010E945A
:10171000F6182196F39404CFDF91CF911F910F918A
:10172000FF90EF90BF90AF909F908F9008950E9490
:101730005E17109231021092300210927A021092CB
:101740009B021092780281E08093770210925202FD
:1017500061E082E10E94361561E083E10E94361566
:101760008091B9008E7F8093B9008091B9008D7F00
:101770008093B90088E48093B80085E48093BC002E
:101780008091950487FD08C061E00E94821560E0A9
:10179000809195040E94361581E0809390040E9408
:1017A000361868E181E00E94051A90E090931A02D1
:1017B0008093190263E083E00E94051A90E0909301
:1017C00022018093210108950C945205FC0183812C
:1017D00087708860838384818F718062848367834C
:1017E000CF0108950F931F93CF93DF93EC01611501
:1017F000710561F0FB0101900020E9F73197E61BCC
:10180000F70BE931F10518F0E9E101C0E0E00E2F36
:1018100010E0C80123E0880F991F2A95E1F79B810A
:101820009770892B8B838C818F718C83EE2329F0A9
:10183000A801CE0107960E94C529FE01E00FF11F05
:101840001782CE01DF91CF911F910F9108952BE068
:1018500043E06FEF80E00E944F1766EE71E00E9458
:10186000F20B0E9452052CE043E06FEF80E00E94F3
:101870004F176AEF71E00E94F20B0E94520567E178
:1018800081E00E94EF196AE182E00E94EF1964E0B2
:1018900083E00E94EF1966E084E00E94EF1967E0A0
:1018A00085E00E94EF1967E186E00E94EF1967E189
:1018B00087E00E94EF1967E188E00C94EF19CF935D
:1018C00080E090E0892B21F08CE090E00E94000005
:1018D0002FE043E06FEF80E00E944F1763E971E073
:1018E0000E94F20B8091A704877080618093A70407
:1018F0008091A8048F71806C8093A80481E080930C
:10190000AB041092AC0484EA94E00E9452058FE08C
:101910000E94291662E18FEF0E94EF19C091DC024C
:1019200026E043E06FEF80E00E944F176C2F0E948B
:10193000E60B0E94E40B86E00E942916CF910C94DE
:10194000270CCF938091A70281FD2FC00E945F0CCE
:1019500089E493E09F938F930E94EF030F900F9081
:1019600080E090E0892B21F089E090E00E94000067
:101970008091A70281608093A702C4E02AE143E03E
:101980006FEF80E00E944F1762E00E94E60B0E941A
:10199000E40B8BE10E942916811102C0C15071F73E
:1019A0008091A70282608093A702CF910895CF9380
:1019B00021E041E060E070E086E00E946803C82F0B
:1019C00021E041E060E070E085E00E94680321E0F2
:1019D0008C3409F020E081E0C73209F080E08223F6
:1019E000CF910895CF93DF931F92CDB7DEB7698370
:1019F00020E041E0BE016F5F7F4F0E9468030F90BF
:101A0000DF91CF9108956FE080E20E94F20C609127
:101A100018016F3F19F08AE20E94F20C299A08958A
:101A20002F923F924F925F926F927F928F929F92EE
:101A3000AF92BF92CF92DF92EF92FF920F931F93DC
:101A4000CF93DF93CDB7DEB727970FB6F894DEBFFD
:101A50000FBECDBF0E941D1600912B0210912C02CB
:101A600020912D0230912E02DC01CB01801B910BC5
:101A7000A20BB30B813A9B4BAD40B105D0F00E9455
:101A80001D1660932B0270932C0280932D0290936D
:101A90002E020E94D70C81111EC083EF95E09F9308
:101AA0008F930E94EF0387E291E00E94C3030F909F
:101AB0000F9036E0E32E40E0C42E40E0D42ECE015D
:101AC00001969C838B8354EB452E5BE2552E51E1AE
:101AD000652E712C97C082E096E09F938F930E94B1
:101AE000EF03E5CFEA94EE2009F4FAC4C114D1045F
:101AF00021F081E090E00E94000021E041E060E000
:101B000070E080E60E946803F82E90E2981720F4B7
:101B100082EE0E949A03F12C21E04F2D65EC74E0D7
:101B200081E60E94680360E487E20E94F20C8091E3
:101B3000C804282F2695269526952A3108F029E1F4
:101B400082FD6AC047E0420F8091C90487708D838F
:101B50000091CA041091C6043090C5042090C704B7
:101B600085EC94E02E834F830E9486172E81A22E4F
:101B7000B12C812E912C9F938F938091C80482FB6E
:101B8000882780F91F928F931F922F938091C90409
:101B90008295869587701F928F931F920F931F9245
:101BA0003D813F938091CB041F928F931F922F9280
:101BB0001F923F921F921F93A9EBB5E0BF93AF9383
:101BC0000E94EF030FB6F894DEBF0FBECDBF4F816A
:101BD000F41621F1C114D10429F08CE690E00E94A2
:101BE00000004F811F924F931F92FF9284EA95E06D
:101BF0009F938F930E94EF030F900F900F900F9081
:101C00000F900F9021E041E060E070E087E10E94DA
:101C1000680380FD65C466CF40E296CF8091C8041A
:101C20008370823091F0C114D10421F08DE690E0F0
:101C30000E9400001F9282E08F938091C8048370FD
:101C40001F928F938FE895E0D3CF8091DC023816F6
:101C500049F08091DB02181729F0632DC401039627
:101C60000E949827809129028068809329028091A0
:101C7000DB02281256C02091C804822F86958695D3
:101C800086958A3108F089E138E0839FC0011124EC
:101C90002770822B8093C804F501EB53FB4F17820A
:101CA0008091C90483FF21C08EE795E09F938F93B5
:101CB0000E94EF0381E2E5ECF4E0A4EAB4E00190D5
:101CC0000D928A95E1F78091A804877F80618093C7
:101CD000A8048091DB028093A5041093A60484EAF3
:101CE00094E00E9452050F900F909091C90494FDCA
:101CF0000BC03D81333081F48091CA0421EF280F5D
:101D0000233008F0ADC07ECF8BEE94E09F938F938D
:101D10000E94EF030F900F9085EC94E00E948F08D3
:101D200071CF2FEF22126DC0AFEDB4E0BF93AF9330
:101D30000E94EF030F900F903D81333009F053C0A4
:101D40008091280282FF32C0073081F58091DC0249
:101D5000181709F457CF1F921F93A7ECB4E0BF9355
:101D6000AF930E94EF030E941D1680902402909072
:101D70002502A0902602B0902702DC01CB01881931
:101D80009909AA09BB090F900F900F900F9080310D
:101D90009742A105B10508F0C2C285E594E09F9382
:101DA0008F930E94EF030F900F9059C3083009F4EE
:101DB00029CF0431C1F48091DC02381214C00E9492
:101DC0001D167370882799270E94E3150091DC0285
:101DD00025E143E06FEF812F0E944F17602F0E9493
:101DE000E60B0E942C048091DC0238120BCF80910C
:101DF000DB02181709F46FC38091280282FD56C3D5
:101E00006AC38091280282FFFDCEAFE7B4E0BF93A2
:101E1000AF930E94EF030F900F903D813330D9F4C0
:101E200008510230C0F40E9423188E3FA1F01F9287
:101E30008F93A7E6B4E0BF93AF938E830E94EF0326
:101E40008E8161E0680F85EC94E00E94E60B0F90B4
:101E50000F900F900F9085EC94E00E942C04D2CE4E
:101E6000043029F40E9423180E946105CBCE08306B
:101E700011F50091280200FF1BC00E9423188F3F1C
:101E800009F4C0CE8F5F8F3F09F4BCCE9091DD0284
:101E9000891708F0B7CE01FDB5CE8093DD0210930F
:101EA000DC021F928F931F921F9382E695E0A0CED3
:101EB0008AE495E02EC00831C1F40E9423181F92D5
:101EC0008F931F921F938EE295E09F938F930E94B2
:101ED000EF0329E143E06FEF812F0E944F1761E08C
:101EE0000E94E60B0E942C0487CE0931B9F4809140
:101EF000280283FF0CC0877F809328020E9423184A
:101F000080932A021F928F9385E195E03CC088EF71
:101F100094E09F938F930E94EF03C5C22091C60463
:101F20002111F9C18D3099F480E090E0892B21F0E6
:101F30008BE090E00E94000098E088E10FB6F894F2
:101F4000A895809360000FBE90936000FFCF8B3107
:101F5000F9F40E94231891E0811101C090E0809172
:101F6000A70290FB80F98093A702C114D10421F04D
:101F70008AE090E00E9400008091A70281701F9289
:101F80008F9389EE93E09F938F930E94EF03F3C1A9
:101F9000863099F49091CC0481E0992319F09D3416
:101FA00009F080E08093A60241E050E063E071E038
:101FB00086EA92E00E94882725CE833119F40E9498
:101FC0005F0C20CE8231D9F40E94B0034B015C013A
:101FD00026E143E06FEF80E00E944F17FC0184810F
:101FE0008F71806A84838381877080628383878214
:101FF0009086A186B286CF010E94520503CE813021
:1020000001F520E030E0232B09F4FCCD9295969564
:102010009770953049F46091CC047091CD04809113
:10202000CE049091CF040AC0911105C08CEC94E0CD
:102030000E94862003C060E070E0CB010E94000097
:10204000E1CD8A3059F58091CC04833409F0DACDA2
:10205000C114D10421F08DE090E00E94000003E063
:1020600010E06FEFC8010E9498270F5F1F4F0330E9
:1020700081E01807B1F784EC93E09F938F930E945F
:10208000EF032AE043E06FEF80E00E944F1769E51D
:1020900071E00E94F20B0E94E40B05C28C3109F042
:1020A0003BCE8091CC04823509F04AC000E010E0BC
:1020B000C80103960E948027F82E9FEF891307C05E
:1020C0000F5F1F4F0115A1E01A0791F79BCD1F92DB
:1020D0008F931F930F93A0EDB3E0BF93AF930E9434
:1020E000EF032CE143E06FEF80E00E944F17FC010B
:1020F000838187708061838384818F71806C848306
:102100000783F086CF010E94E40B0E941D164B014D
:102110005C010F900F900F900F900F900F900E9406
:102120001D16DC01CB0188199909AA09BB09883C55
:102130009105A105B10520F6A8950E94A003EFCF57
:10214000863599F58EE480937C0066E470E080E04B
:1021500090E00E94E31580917A00806480937A0079
:1021600080917A0086FDFCCFA0907800B090790035
:102170002CE143E06FEF80E00E944F178C01DC01FF
:1021800014968C9114978F71806614968C93149783
:1021900013968C9113978770806113968C93950199
:1021A00040E050E0C301B2015DC0863409F063C075
:1021B000F8948FEF86BB10928500109284001092E5
:1021C000800010928200909160002DE088E10FB6AF
:1021D000F894A895809360000FBE209360008091D2
:1021E0006000806480936000A89585E08093810002
:1021F0008091600087FFFCCF10928100A8958091AC
:102200006000886180936000909360007894A09053
:102210008400B09085002CE143E06FEF80E00E94E5
:102220004F178C01DC0114968C9114978F71806686
:1022300014968C93149713968C91139787708061E2
:1022400013968C93C501A0E0B0E0BC01CD012BE05A
:10225000660F771F881F991F2A95D1F720EA36E865
:1022600041E050E00E94BA27F80130872783C80177
:102270000E94E40BC7CC8D3401F500912D0510911F
:102280002E050115110511F403E315E02CE143E0DF
:102290006FEF80E00E944F17FC0184818F71806690
:1022A000848383818770806183838B819C81801B81
:1022B000910B90878783CF01DBCF853409F0A2CCC7
:1022C0002CE143E06FEF80E00E944F1769E571E079
:1022D0000E94F20B0E94E40B00E010E06FEFC801D7
:1022E0000E9498270F5F1F4F0D39F1E01F07B1F7CC
:1022F00080E090E0892B21F08BE090E00E940000CC
:1023000098E088E10FB6F894A895809360000FBE1E
:1023100090936000FFCF8A3109F0FECC73CC80919E
:10232000280283FD57C01F921F928EEF93E09F9368
:102330008F930E94EF030F900F900F900F9080915A
:10234000DB0281111DC010922A0280912802877F32
:102350008093280200912A020F3F09F044C083E2D3
:1023600094E09F938F930E94EF0384EA94E09F93FD
:102370008F930E94EF030F900F900F900F9042CC1D
:102380008091280288608093280220922A0228E106
:1023900043E06FEF80E00E944F1761E00E94E60B80
:1023A0000E942C040E941D164B015C011092CA046D
:1023B00000E00E941D16DC01CB0188199909AA09C9
:1023C000BB09803D9740A105B10508F0BECF0023B1
:1023D00099F1BBCF82E194E09F938F930E94EF032A
:1023E0000F900F90BCCF0E941D1660932402709333
:1023F0002502809326029093270289E494E09F931C
:102400008F930E94EF038091DD020F900F900817C9
:1024100031F11F920F931F928F9381E394E09F936A
:102420008F930E94EF030093DD020F900F900F90A7
:102430000F900F900F9013C08091280284FD0E948E
:10244000100DA8958091C9048770833009F0B1CF31
:1024500001E08091CA04893109F0AACFAACF0E9475
:102460001D16609324027093250280932602909398
:10247000270287EB94E09F938F930E94EF030E94C3
:102480001D167370882799270E94E3150091DD02BD
:1024900028E043E06FEF812F0E944F17602F0E94CA
:1024A000E60B0E942C040F900F90ACCBA0E9B4E097
:1024B000BF93AF930E94EF0385EC94E00E942C043D
:1024C0000F900F903D81333009F49CCB8091DC025A
:1024D000381298CB21CC3D81333009F01DCC92CB02
:1024E00027960FB6F894DEBF0FBECDBFDF91CF9118
:1024F0001F910F91FF90EF90DF90CF90BF90AF9022
:102500009F908F907F906F905F904F903F902F9013
:102510000895CF92DF92EF92FF920F931F93CF9384
:10252000DF931F92CDB7DEB7182FC42E822F698399
:102530000E945919D12CE12CF12C6981D62AE12A6B
:1025400000E010E08091910490919204081719071F
:1025500028F4B701A601C8010E94F6180F5F1F4FAB
:102560000E31110579F70F90DF91CF911F910F91E7
:10257000FF90EF90DF90CF900C943618CF93DF93BD
:10258000CEE1D0E0409193045091940460E070E07B
:1025900080919704909198040E94B729219791F710
:1025A000DF91CF910C943618382F20919B02909197
:1025B000A502213208F049C0809178028111FCCF38
:1025C00042E040937802309377023FEF30937602F7
:1025D0001092750220937402ABE7B2E044E552E03A
:1025E000FA013E2F341B321718F43D913193F9CF85
:1025F0001092530220915302990F922B9093530201
:1026000090915202913061F41092520290915302D3
:102610009093BB009091BC0093FDF8CF95EC01C066
:1026200095EE9093BC00909178029230E1F39091F6
:1026300076029F3F79F080917602803241F080915E
:102640007602803331F084E005C081E003C082E08F
:1026500001C083E010927A0210929B0210927902DC
:1026600008950895CF92DF92EF92FF920F931F93F8
:10267000CF93DF936C017A018B01C0E0D0E0CE15DF
:10268000DF0589F0D8016D918D01D601ED91FC91A6
:102690000190F081E02DC6010995892B11F47E018E
:1026A00002C02196ECCFC701DF91CF911F910F910E
:1026B000FF90EF90DF90CF900895FC01538D448DF3
:1026C000252F30E0842F90E0821B930B541710F0DD
:1026D000CF96089501970895FC01918D828D9817EA
:1026E00061F0828DDF01A80FB11D5D968C91928DF6
:1026F0009F5F9F73928F90E008958FEF9FEF0895F3
:10270000FC01918D828D981731F0828DE80FF11DBB
:10271000858D90E008958FEF9FEF0895FC01918DD6
:10272000228D892F90E0805C9F4F821B91098F73CF
:10273000992708958EED92E00E948E1321E0892B57
:1027400009F420E0822F0895FC01848DDF01A80F99
:10275000B11DA35ABF4F2C91848D90E001968F73C9
:102760009927848FA689B7892C93A089B1898C91E8
:1027700080648C93938D848D981306C00288F389AE
:10278000E02D80818F7D80830895EF92FF920F93DB
:102790001F93CF93DF93EC0181E0888F9B8D8C8D0D
:1027A000981305C0E889F989808185FD24C0F62E3B
:1027B0000B8D10E00F5F1F4F0F731127E02E8C8DD4
:1027C000E8120CC00FB607FCFACFE889F9898081BE
:1027D00085FFF5CFCE010E94A413F1CF8B8DFE01B2
:1027E000E80FF11DE35AFF4FF0820B8FEA89FB8956
:1027F0008081806207C0EE89FF896083E889F9895A
:1028000080818064808381E090E0DF91CF911F918F
:102810000F91FF90EF900895CF93DF93EC01888D97
:102820008823C9F0EA89FB89808185FD05C0A889D4
:10283000B9898C9186FD0FC00FB607FCF5CF80815A
:1028400085FFF2CFA889B9898C9185FFEDCFCE01A4
:102850000E94A413E7CFDF91CF91089580E090E02C
:10286000892B29F00E949A1381110C94000008957D
:102870000895909178029111FCCF813208F080E2A6
:1028800091E090937802909377022FEF2093760255
:1028900010927502280F2093740290935302909126
:1028A000530290689093530290915202913061F4D8
:1028B00010925202909153029093BB009091BC00F1
:1028C00093FDF8CF95EC01C095EE9093BC009091EC
:1028D00078029130E1F390917502981710F480918D
:1028E0007502A4E5B2E022E332E0F9019E2F921BCB
:1028F000981718F49D919193F9CF1092310280931B
:102900003002089591E09093790290E49093A502AB
:1029100010927A0210929B02682F8BE793E00E943C
:10292000BB1A81E00C94D4120E94A929CF92DF92A5
:10293000EF92FF92CF93DF936C01990FEE08FF089F
:10294000F7FE1AC0E091DE02F091DF020190F08103
:10295000E02D6DE28EED92E00995EC016627772778
:10296000CB016C197D098E099F094AE00E94AE19BE
:102970007C01EC0EFD1E06C04AE0C701B6010E94B4
:10298000AE197C0181E991E00E949A198E0D9F1D7C
:10299000DF91CF91FF90EF90DF90CF9008950F934C
:1029A0001F93CF93DF9300D000D000D0CDB7DEB718
:1029B0008E010F5F1F4F86E0F80111928A95E9F7AB
:1029C00081E00E94821483E090E00E94391490918B
:1029D000300280913102981749F08BE793E00E9412
:1029E000391AF801819391938F01F1CF80E090E043
:1029F0009B812D813E81822B932B26960FB6F894D6
:102A0000DEBF0FBECDBFDF91CF911F910F91089513
:102A100080E00E94821481E090E00E94391480E0FE
:102A20002091300290913102291729F08BE793E031
:102A30000E94391AF5CF0895CF93C82F81E0809373
:102A4000790280E48093A50210927A0210929B0290
:102A500063E08BE793E00E94BB1A6C2F8BE793E057
:102A60000E94BB1A81E0CF910C94D41290E0FC013B
:102A7000E85EF94F3491FC01ED5BF94F2491FC01C4
:102A8000EF59F94FE491EE2309F43BC0332339F1B8
:102A9000333091F038F43130A9F0323001F584B59B
:102AA0008F7D12C0373091F03830A1F03430B9F456
:102AB000809180008F7D03C0809180008F7780930C
:102AC00080000DC084B58F7784BD09C08091B000AF
:102AD0008F7703C08091B0008F7D8093B000F0E0CD
:102AE000EE0FFF1FE95AF94FA591B4918FB7F894F3
:102AF000EC91611103C020952E2301C02E2B2C9345
:102B00008FBF0895CF93DF9390E0FC01ED5BF94F09
:102B10002491FC01EF59F94F8491882361F190E0F1
:102B2000880F991FFC01E25FF94FC591D491FC0118
:102B3000E95AF94FA591B491611109C09FB7F89472
:102B40008881209582238883EC912E230BC06230EC
:102B500061F49FB7F8943881822F8095832388830E
:102B6000EC912E2B2C939FBF06C08FB7F894E88171
:102B70002E2B28838FBFDF91CF9108953FB7F89414
:102B80008091A1029091A202A091A302B091A4020F
:102B900026B5A89B05C02F3F19F00196A11DB11DB8
:102BA0003FBFBA2FA92F982F8827820F911DA11DF3
:102BB000B11DBC01CD0142E0660F771F881F991F30
:102BC0004A95D1F708958F929F92AF92BF92CF927C
:102BD000DF92EF92FF926B017C010E94BE154B01C8
:102BE0005C01C114D104E104F104F1F00E94BE15AE
:102BF000DC01CB0188199909AA09BB09883E9340D9
:102C0000A105B10570F321E0C21AD108E108F1086D
:102C100088EE880E83E0981EA11CB11CC114D1045B
:102C2000E104F10419F7DDCFFF90EF90DF90CF9032
:102C3000BF90AF909F908F9008952FB7F8946091B8
:102C40009D0270919E0280919F029091A0022FBFE1
:102C50000895CF92DF92EF92FF92CF93DF93D82F18
:102C60000E941D166B017C0181E0D11180E08093F0
:102C7000CA04C0E00E941D16AB01BC014C195D09DD
:102C80006E097F09403D57406105710580F4C1110F
:102C90000EC0A8950E94A0039091C904977093302C
:102CA00049F7C1E08091CA048D13E3CFE3CF8C2FA5
:102CB000DF91CF91FF90EF90DF90CF9008951F921A
:102CC0000F920FB60F9211242F933F938F939F93E0
:102CD000AF93BF9380919D0290919E02A0919F021D
:102CE000B091A00230919C0223E0230F2D3720F4F5
:102CF0000196A11DB11D05C026E8230F0296A11D56
:102D0000B11D20939C0280939D0290939E02A093FC
:102D10009F02B093A0028091A1029091A202A09183
:102D2000A302B091A4020196A11DB11D8093A1023E
:102D30009093A202A093A302B093A402BF91AF917B
:102D40009F918F913F912F910F900FBE0F901F90E9
:102D500018951F920F920FB60F9211242F933F9345
:102D60004F935F936F937F938F939F93AF93BF9393
:102D7000EF93FF93E0912D01F0912E010995FF91C2
:102D8000EF91BF91AF919F918F917F916F915F91E3
:102D90004F913F912F910F900FBE0F901F9018955C
:102DA0001F920F920FB60F9211242F933F934F93C0
:102DB0005F936F937F938F939F93AF93BF93EF93A3
:102DC000FF93E0912B01F0912C010995FF91EF9178
:102DD000BF91AF919F918F917F916F915F914F9133
:102DE0003F912F910F900FBE0F901F9018951F923B
:102DF0000F920FB60F9211242F933F934F935F932F
:102E00006F937F938F939F93AF93BF93EF93FF93B2
:102E10008EED92E00E94A413FF91EF91BF91AF91CC
:102E20009F918F917F916F915F914F913F912F91E2
:102E30000F900FBE0F901F9018951F920F920FB614
:102E40000F9211242F938F939F93EF93FF93E09111
:102E5000EE02F091EF028081E091F402F091F50230
:102E600082FD12C090818091F7028F5F8F73209155
:102E7000F802821751F0E091F702F0E0E252FD4FC4
:102E8000958F8093F70201C08081FF91EF919F9110
:102E90008F912F910F900FBE0F901F901895E4EA1D
:102EA000F4E09091DB0291838283668325834770EF
:102EB0008481807E482B4483CF010895EEEDF2E0BB
:102EC000A089B18982E08C93A485B5851C92A685E2
:102ED000B78580E18C93108EA489B58986E08C93A8
:102EE000A289B3898C9180618C93A289B3898C91DA
:102EF00088608C93A289B3898C9180688C930288B6
:102F0000F389E02D80818F7D808308950F931F9337
:102F1000CF93DF93EC018C8182958695877091F435
:102F20004B8146954695469550E0BE01695F7F4FBF
:102F300088EA92E00E94C529EB81E695E695E69540
:102F4000F0E077C0813031F48F814AE068EA72E0C6
:102F500090E007C0823041F44AE068EA72E08F8175
:102F600098850E94B62068C0833041F44AE068EA40
:102F700072E08F8198850E940F215EC0843051F4E9
:102F80006F81788589859A852AE048EA52E00E9417
:102F9000C12052C0853051F46F81788589859A852A
:102FA0002AE048EA52E00E94ED2046C0873071F4E2
:102FB0002B85293008F028E06F81788589859A85EE
:102FC00008EA12E042E00E940A1E36C08630A1F5EF
:102FD00020E0EB81E695E695E6952E1738F5E22F91
:102FE000F0E0AF01440F551FDA01A855BD4FEC0FBB
:102FF000FD1F8781082E000C990B34E0959587956D
:103000003A95E1F78F708A3010F4805D01C0895CD9
:103010008C93DA01A755BD4F87818F708A3010F4E9
:10302000805D01C0895C8C932F5FD3CFF0E0EE0F01
:10303000FF1FE855FD4F108288EA92E0DF91CF91A3
:103040001F910F9108958091C9048295869587708C
:10305000813019F48091CC040895811105C08CEC65
:1030600094E00E946820089580E008950F931F93D4
:10307000CF93DF93CDB7DEB729970FB6F894DEBFB5
:103080000FBECDBF8091970490919804892B09F4CD
:10309000A2C00E94BE1500919D0410919E04209133
:1030A0009F043091A004DC01CB01801B910BA20B8B
:1030B000B30B8C329140A105B10558F3F89480917F
:1030C0009304909194049A838983E0919704F091FA
:1030D0009804DF0111968081898790918F04E09197
:1030E000A104F091A2048091A304992309F42EC0B5
:1030F0009081982B98879081809589238F838F81E9
:103100008C8388E08B8358856F8149853B812C8136
:1031100089819A81508347FD252F3A952083262F58
:1031200039F0441F00C000006083000000C0F2CFEF
:1031300038E04D9160830000019761F7F093A2049D
:10314000E093A10449873B832C8338C09081982B5E
:1031500098879081809589238F838F818E8388E0E3
:103160008D8358856F8149853D812E8189819A8122
:10317000508347FD252F00C000C0208300C000C041
:1031800000C000C000C060830000262F3A9541F0C7
:10319000441F000000C000C000C000C000C0E8CF55
:1031A00038E04D9100C0608300C0019709F7F093AB
:1031B000A204E093A10449873D832E839A838983E7
:1031C00078940E94BE1560939D0470939E04809332
:1031D0009F049093A00429960FB6F894DEBF0FBE0B
:1031E000CDBFDF91CF911F910F9108958F929F9244
:1031F000AF92BF92CF92DF92EF92FF924B01AA243F
:10320000BB24E82DC52ED62EE72EFF24FC2D342F0F
:1032100020919604222361F0829E40011124E92D21
:10322000C29E60011124FD2D429FD00111243B2F2D
:10323000F0909C04E0909904A0919704B0919804B8
:10324000FE1008C0AC01440F551F840F951F8A0F54
:103250009B1F14C0880F991F880F991F8A0F9B1FEF
:10326000472F552766277727DC01AF0DB11D222395
:1032700021F0429FA0011124452F4C9320919904E5
:10328000DC01A20FB11DEC9320919A04DC01A20F86
:10329000B11DFC9320919B04FC01E20FF11D3083D2
:1032A000FF90EF90DF90CF90BF90AF909F908F9066
:1032B00008951F93CF93DF9311E0180F2091960488
:1032C0001217A1F1C0919704D09198042150B9F040
:1032D0008F3F59F430E040E050E06FEF7FEF80E047
:1032E00090E00E94DC27B9010CC0812F90E0982F5C
:1032F00088270197622F70E00E94BE2802C060E01C
:1033000070E0FE014091930450919404CF018C1B16
:103310009D0B8417950740F44081469FC001479F4D
:10332000900D11249193EECF10939604DF91CF91DD
:103330001F910895009769F0FC0101900020E9F7C2
:103340003197AF01481B590BBC018EED92E00C94F4
:10335000321380E090E008950C949A198F929F9216
:10336000AF92BF920F931F93CF93DF93CDB7DEB78A
:10337000A1970FB6F894DEBF0FBECDBF19A24230A1
:1033800008F44AE08E010F5D1F4F842E912CA12C72
:10339000B12CA50194010E94BA27E62FB901CA01F8
:1033A00001501109EA3014F4E05D01C0E95CD80174
:1033B000EC93232B242B252B61F7C8010E949A192B
:1033C000A1960FB6F894DEBF0FBECDBFDF91CF91AF
:1033D0001F910F91BF90AF909F908F900895CF93C2
:1033E000DF93262F8F3F19F0C3E9D1E002C0CEEF63
:1033F000D1E040E0682F80E00E944F17BE010E949C
:10340000F20BDF91CF910C945205262F42E0682FEA
:1034100080E00E944F1763E971E00E94F20B0C9468
:103420005205FC018091DB0281839481907F916041
:1034300094838091A70280FF03C0CF010C945205B2
:103440008CE296E09F938F930E94EF030F900F9072
:1034500080E00895E091310280913002E81730F465
:10346000F0E0EE5CFD4F808190E008958FEF9FEFDC
:1034700008959091310280913002981750F4E92F0D
:10348000F0E0EE5CFD4F208130E09F5F90933102D1
:1034900002C02FEF3FEFC90108958091300290E004
:1034A00020913102821B91090895089580E090E0F7
:1034B000089585ED8093BC008091BC0084FDFCCF15
:1034C00010927802089540910805262F30E0240FCD
:1034D000311D21323105DCF4209178022430C9F409
:1034E000FC0180E090E0861758F4309108052191A6
:1034F000DC01AA51BB4FA30FB11D2C930196F3CF52
:1035000080910805680F6093080580E0089581E0C8
:10351000089582E00895CF92DF92EF92FF920F9389
:103520001F93CF93DF937C01262F972F8A018091E1
:103530007902882391F0C62FD72F6E01C40ED51EB5
:10354000CC15DD0571F06991D701ED91FC910190E9
:10355000F081E02DC7010995F3CF642F822F0E94DF
:10356000631AC801DF91CF911F910F91FF90EF90E7
:10357000DF90CF900895CF93DF931F92CDB7DEB742
:103580006983209179022223D1F020919B0220327D
:1035900040F021E030E0FC013383228380E090E0C2
:1035A00015C080917A02E82FF0E0E558FD4F99812F
:1035B00090838F5F80937A0280939B0205C061E0C5
:1035C000CE0101960E94631A81E090E00F90DF9196
:1035D000CF9108951F920F920FB60F9211242F933F
:1035E0003F934F935F936F937F938F939F93AF938B
:1035F000BF93EF93FF938091B900887F803609F4E1
:103600009CC068F5883209F45BC090F4803109F4FD
:1036100054C038F4882309F4F6C0883009F44DC04A
:10362000F6C0883109F44CC0803209F45DC0EFC0A7
:10363000803409F468C048F4803309F455C08833F5
:1036400009F0E5C080937602D8C0803509F44FC0F8
:10365000883509F45DC0883409F0D9C0D6C08839EE
:1036600009F4C7C0A8F4883709F467C038F488366D
:1036700009F463C0803709F460C0C9C0883809F410
:10368000B8C0803909F45FC0803809F0C0C05BC0A1
:10369000803B09F486C038F4803A09F466C0883A61
:1036A00009F47FC0B4C0803C09F4A7C0883C09F489
:1036B000A4C0883B09F48AC0AAC08091530210C0FC
:1036C0009091750280917402981770F5E0917502DF
:1036D00081E08E0F80937502F0E0EC5AFD4F8081FF
:1036E0008093BB0085EC86C0809376028EC0E0910B
:1036F000750281E08E0F809375028091BB00F0E02F
:10370000EC5AFD4F808390917502809174026EC0D7
:10371000E091750281E08E0F809375028091BB006D
:10372000F0E0EC5AFD4F80838091770281116DC0EB
:1037300081E08093520284EA61C083E08093780242
:1037400010922C05CFCF80912C05803208F051C00B
:10375000E0912C0581E08E0F80932C058091BB00B9
:10376000F0E0E45FFA4F8083BDCF85EC8093BC002E
:103770001092780280912C05803230F4E0912C0573
:10378000F0E0E45FFA4F108260912C0570E0E09168
:103790000A05F0910B058CE095E0099510922C0537
:1037A00036C084E0809378021092090510920805D3
:1037B000E0910605F09107050995809108058111B2
:1037C00005C081E0809308051092E604E0910905A8
:1037D00081E08E0F80930905F0E0EA51FB4F808174
:1037E0008093BB009091090580910805981708F413
:1037F00079CF85E88093BC000AC085EC8093BC003B
:103800001092780204C0109276020E94591AFF9119
:10381000EF91BF91AF919F918F917F916F915F9148
:103820004F913F912F910F900FBE0F901F901895C1
:10383000789484B5826084BD84B5816084BD85B58B
:10384000826085BD85B5816085BD80916E00816097
:1038500080936E001092810080918100826080933D
:10386000810080918100816080938100809180003F
:103870008160809380008091B10084608093B1006A
:103880008091B00081608093B00080917A00846064
:1038900080937A0080917A00826080937A00809190
:1038A0007A00816080937A0080917A0080688093AA
:1038B0007A001092C100A89580E090E0892B11F069
:1038C0000E9400000E945E1788E993E09F938F9307
:1038D0000E94EF038091A7028D7F8093A7020F9033
:1038E0000F9080E090E0892B51F08BE893E09F935C
:1038F0008F930E94EF030E9400000F900F9041E011
:1039000050E063E071E086EA92E00E9470276FEF7A
:1039100081E090E00E949827809129028F7880931F
:10392000290210921F0210921E0289E191E00E946A
:10393000C30381EA9CE090930602809305021F92E4
:103940001F921F921F9286E593E09F938F930E9490
:10395000EF030E941D160F900F900F900F900F9085
:103960000F900E941D160E94A003A8958091280226
:1039700082FFF7CF8EE793E09F938F930E94EF0330
:103980000E94970B0F900F908091280282FB88274E
:1039900080F91F928F9386E693E09F938F930E9406
:1039A000EF03A8950F900F900F900F90A8950E948D
:1039B000A0030E948D090E942E14F8CFCF93DF93AD
:1039C000FC01108211821282148215821682DC019F
:1039D00017968AE1ED0119928A95E9F782E08383CF
:1039E000DF91CF910895809197049091980400976A
:1039F00011F00E94BF1E8091950487FD03C060E016
:103A00000C9482150895CF93DF931092E1021092E7
:103A1000E00288EE93E0A0E0B0E08093E2029093B1
:103A2000E302A093E402B093E50229E331E030938E
:103A3000DF022093DE0225EC30E03093EB0220938E
:103A4000EA0224EC30E03093ED022093EC0220EC0B
:103A500030E03093EF022093EE0221EC30E030931F
:103A6000F1022093F00222EC30E03093F302209335
:103A7000F20226EC30E03093F5022093F40210922B
:103A8000F7021092F8021092F9021092FA021092C4
:103A90007E0310927D0380937F0390938003A09315
:103AA0008103B09382038BE491E090937C03809335
:103AB0007B0385EC94E00E94DE1C84EA94E00E9483
:103AC000DE1C109290041092960410929D041092A5
:103AD0009E0410929F041092A00481E080939C04A5
:103AE0008093990410929A0492E090939B0480939F
:103AF0008F048AE590E090939404809393040E944D
:103B00002A1E9093980480939704009761F02AE509
:103B1000FC0111922A95E9F78EE190E090939204CE
:103B20008093910408C01092940410929304109210
:103B300092041092910486E0809395048091900401
:103B4000882341F061E086E00E94821560E086E013
:103B50000E943615E7E6F6E0E491F0E0EE0FFF1F75
:103B6000E95AF94F859194919093A2048093A1040E
:103B7000E9E4F6E0E491E093A3048EE694E00E9489
:103B8000DE1CD1E0D0937404C8E1C09373048DE4CB
:103B900094E00E94DE1C82E08093530488E28093CC
:103BA00052048CE294E00E94DE1C83E08093320495
:103BB000809331048BE094E00E94DE1C84E08093CB
:103BC0001104109210048AEE93E00E94DE1C85E03E
:103BD0008093F003D093EF0389EC93E00E94DE1C06
:103BE00086E08093CF03C093CE0388EA93E00E94DF
:103BF000DE1C87E08093AE03C093AD0387E893E0BB
:103C00000E94DE1C88E080938D03C0938C03DF91BB
:103C1000CF910895EF920F931F93CF93DF93E80115
:103C200047FD02C034E001C034E1E42F440FFF0B34
:103C3000F7FF03C0F195E195F109E32E022F2E2F36
:103C4000AE010E942723CE01DF91CF911F910F91EA
:103C5000EF900895CF93DF938230910510F482E0C6
:103C600090E0E0912F05F091300520E030E0C0E0D9
:103C7000D0E0309711F14081518148175907C0F0C9
:103C80004817590761F482819381209719F09B832B
:103C90008A832BC09093300580932F0526C0211571
:103CA000310519F04217530718F49A01BE01DF01DC
:103CB000EF010280F381E02DDCCF2115310509F100
:103CC000281B390B2430310590F412968D919C916C
:103CD00013976115710521F0FB019383828304C062
:103CE0009093300580932F05FD01329644C0FD016D
:103CF000E20FF31F81939193225031092D933C934E
:103D00003AC020912D0530912E05232B41F42091AE
:103D100031013091320130932E0520932D052091F1
:103D20002F01309130012115310541F42DB73EB7F7
:103D30004091330150913401241B350BE0912D0546
:103D4000F0912E05E217F307A0F42E1B3F0B281766
:103D5000390778F0AC014E5F5F4F2417350748F004
:103D60004E0F5F1F50932E0540932D058193919325
:103D700002C0E0E0F0E0CF01DF91CF9108950F9312
:103D80001F93CF93DF93009709F48CC0FC01329707
:103D90001382128200912F05109130050115110533
:103DA00081F420813181820F931F20912D05309164
:103DB0002E052817390779F5F0932E05E0932D0588
:103DC00071C0D80140E050E0AE17BF0750F4129622
:103DD0002D913C911397AD012115310509F1D901C0
:103DE000F3CF9D01DA013383228360817181860FD5
:103DF000971F8217930769F4EC0128813981260FF8
:103E0000371F2E5F3F4F318320838A819B819383AD
:103E10008283452B29F4F0933005E0932F0542C0AF
:103E20001396FC93EE931297ED01499159919E01DF
:103E3000240F351FE217F30771F480819181840FFD
:103E4000951F029611969C938E938281938113966F
:103E50009C938E931297E0E0F0E0D80112968D913A
:103E60009C911397009719F0F8018C01F6CF8D9172
:103E70009C9198012E5F3F4F820F931F20912D053B
:103E800030912E052817390769F4309729F41092DC
:103E9000300510922F0502C01382128210932E0556
:103EA00000932D05DF91CF911F910F910895A0E010
:103EB000B0E0EDE5FFE10C9406285C016B017A01AE
:103EC0006115710519F0FB0191838083E114F10400
:103ED00029F0C7010297839708F0F1C0E501219608
:103EE000F5011081812F90E00E94AD20892B11F007
:103EF0005E01F4CF1D3229F42196F501118101E014
:103F000007C01B3221F4E5012296F501118100E082
:103F1000E114F10459F1F0E1EF16F10461F410330A
:103F2000E1F488818F7D883569F5198122960260D8
:103F300070E1E72EF12C88E0E816F10439F12CF459
:103F4000F2E0EF16F104C9F12AC08AE0E816F104A4
:103F500079F0E0E1EE16F10411F550E1E52EF12CD7
:103F6000812C912CA12C68E0B62E2CC01033C9F204
:103F70003AE0E32EF12C4CEC842E982CA82C4CE04B
:103F8000B42E20C010E3E114F104A9F698E0E92E64
:103F9000F12C812C912CA12C20E1B22E13C060E0D9
:103FA00070E080E090E897010F2C000C440B550B5B
:103FB0000E94BA2749015A0105C0812C912CA12CDD
:103FC00080E4B82E60E020E030E0A90127010F2C4A
:103FD000000C660877081E01E0EDE10FEA3060F0A2
:103FE0008FEB810F8A3110F4E9EC05C08FE9810F66
:103FF0008A3128F5E9EAE10F8E2F90E08E159F05B2
:10400000F4F467FD18C082169306A406B50690F076
:10401000C301B2010E94AA279B01AC012E0F311DE2
:10402000411D511D213031054105F0E85F0710F4B5
:1040300061E001C06FEF2196F1011081CCCF802F9C
:104040008170C114D10471F0662329F02197F60123
:10405000D183C08307C001FF19C02297F601D18325
:10406000C08314C067FF12C0811105C02FEF3FEF5E
:104070004FEF5FE704C020E030E040E050E882E22C
:1040800090E0909332058093310516C0882341F06B
:1040900050954095309521953F4F4F4F5F4F0CC045
:1040A00057FF0AC082E290E0909332058093310579
:1040B0002FEF3FEF4FEF5FE7B901CA0104C060E0A7
:1040C00070E080E090E0CDB7DEB7E2E10C9422280A
:1040D000FC0188279927E89421912032E9F32930BF
:1040E00010F02E30C8F32B3241F02D3239F46894A1
:1040F00004C00E94E520820F911D219120532A3097
:10410000C0F31EF4909581959F4F08951F93FC0175
:1041100099278827BC01E89411911032E9F31930EE
:1041200010F01E30C8F31B3251F01D3249F4689470
:1041300006C00E94D020610F711D811D911D11913B
:1041400010531A30B0F33EF49095809570956195B8
:104150007F4F8F4F9F4F1F91089591110C948D2584
:10416000803219F089508550C8F70895BB274A302E
:1041700031F4992322F4BDE2909581959F4F0C94E0
:104180001021BB272A3051F4992342F4BDE29095C7
:104190008095709561957F4F8F4F9F4F0C94EE20C7
:1041A000592F482F372F262F660F771F881F991FEB
:1041B000660F771F881F991F620F731F841F951F3B
:1041C000660F771F881F991F08957AE0979F902D9B
:1041D000879F802D910D11240895BB27FA01A62FEA
:1041E0006217710581059105330B30FB66F0AA2734
:1041F000660F771F881F991FAA1FA21710F0A21B16
:1042000063953850A9F7A05DAA3308F0A95DA19382
:1042100036F7B111B1931082CA010C94A625BB27C1
:10422000FB015527AA27880F991FAA1FA41710F072
:10423000A41B83955051B9F7A05DAA3308F0A95D7E
:10424000A193009779F7B111B1931192CB010C941E
:10425000A625AEE0B0E0EFE2F1E20C9414288C0168
:10426000CA014EE04C831A83098377FF02C060E0E5
:1042700070E8FB013197FE83ED83A901BC01CE01FB
:1042800001960E9455214D815E8157FD0AC02F8104
:104290003885421753070CF49A01F801E20FF31F17
:1042A00010822E96E4E00C943028ACE0B0E0EBE510
:1042B000F1E20C9406287C016B018A01FC01178253
:1042C0001682838181FFBDC1CE0101964C01F701A9
:1042D0009381F60193FD859193FF81916F0188236E
:1042E00009F4ABC1853239F493FD859193FF819137
:1042F0006F01853229F4B70190E00E94B625E7CF1F
:10430000512C312C20E02032A0F48B3269F030F4B3
:10431000803259F0833269F420612CC08D3239F03B
:10432000803339F4216026C02260246023C02860D5
:1043300021C027FD27C030ED380F3A3078F426FF32
:1043400006C0FAE05F9E300D1124532E13C08AE0A0
:10435000389E300D1124332E20620CC08E3221F491
:1043600026FD6BC1206406C08C3611F4206802C0A3
:10437000883641F4F60193FD859193FF81916F0199
:104380008111C1CF982F9F7D9554933028F40C5FF5
:104390001F4FFFE3F9830DC0833631F0833771F08F
:1043A000833509F05BC022C0F801808189830E5FEC
:1043B0001F4F44244394512C540115C03801F2E09E
:1043C0006F0E711CF801A080B18026FF03C0652D1F
:1043D00070E002C06FEF7FEFC5012C870E949B2524
:1043E0002C0183012C852F77222E17C03801F2E093
:1043F0006F0E711CF801A080B18026FF03C0652DEF
:1044000070E002C06FEF7FEFC5012C870E949025FE
:104410002C012C852068222E830123FC1BC0832DB8
:1044200090E048165906B0F4B70180E290E00E948F
:10443000B6253A94F4CFF50127FC859127FE8191AA
:104440005F01B70190E00E94B62531103A94F1E087
:104450004F1A51084114510471F7E5C0843611F028
:10446000893639F5F80127FF07C0608171818281A3
:1044700093810C5F1F4F08C060817181072E000C73
:10448000880B990B0E5F1F4F2F76722E97FF09C076
:1044900090958095709561957F4F8F4F9F4F2068C5
:1044A000722E2AE030E0A4010E94EE25A82EA81862
:1044B00044C0853729F42F7EB22E2AE030E025C093
:1044C000F22FF97FBF2E8F36C1F018F4883579F0BE
:1044D000B4C0803719F0883721F0AFC02F2F20618A
:1044E000B22EB4FE0DC08B2D8460B82E09C024FFFF
:1044F0000AC09F2F9660B92E06C028E030E005C0A4
:1045000020E130E002C020E132E0F801B7FE07C050
:1045100060817181828193810C5F1F4F06C0608131
:10452000718180E090E00E5F1F4FA4010E94EE2594
:10453000A82EA818FB2DFF777F2E76FE0BC0372DF7
:104540003E7FA51450F474FE0AC072FC08C0372DDB
:104550003E7E05C0BA2C372D03C0BA2C01C0B52C45
:1045600034FF0DC0FE01EA0DF11D8081803311F48E
:10457000397E09C032FF06C0B394B39404C0832FC0
:10458000867809F0B39433FD13C030FF06C05A2C6F
:10459000B31418F4530C5B18B32CB31468F4B701BC
:1045A00080E290E03C870E94B625B3943C85F5CF2D
:1045B000B31410F43B1801C0312C34FF12C0B70102
:1045C00080E390E03C870E94B6253C8532FF17C00F
:1045D00031FD03C088E790E002C088E590E0B701B4
:1045E0000CC0832F867859F031FF02C08BE201C0E6
:1045F00080E237FD8DE2B70190E00E94B625A51458
:1046000038F4B70180E390E00E94B6255A94F7CFC2
:10461000AA94F401EA0DF11D8081B70190E00E9497
:10462000B625A110F5CF332009F451CEB70180E2B1
:1046300090E00E94B6253A94F6CFF70186819781E3
:1046400002C08FEF9FEF2C96E2E10C9422284F924C
:104650005F926F927F929F92AF92BF92CF92DF92C2
:10466000EF92FF920F931F93CF93DF93CDB7DEB7F7
:1046700029970FB6F894DEBF0FBECDBF6A01122F87
:10468000B02E2BE3201720F0FF24F394F00E02C08D
:10469000BCE3FB2E0F2D27E0AE014F5F5F4F0E9462
:1046A000B524AC018981982F9970913031F0E1FCEB
:1046B00006C0E0FE06C090E205C09DE203C09BE29A
:1046C00001C090E0EE2DE07183FF3CC0911102C06B
:1046D00083E001C084E0811718F4212F281B01C05A
:1046E00020E0E1110BC0F601822F30E2882319F09F
:1046F00031938150FBCFC20ED11C20E0992329F0C9
:10470000D6019C93F60131966F01C6010396E2FE35
:104710000AC03EE4D6013C9341E411964C931197B4
:1047200012963C9306C03EE6F601308341E6418393
:104730003283FC01322F40E2332309F442C041931B
:104740003150FACF82FF44C0911102C083E001C012
:1047500084E0811718F4212F281B01C020E0E1110B
:104760000BC0F601822F30E2882319F0319381507B
:10477000FBCFC20ED11C20E0992329F0D6019C93D7
:10478000F60131966F01C6010396E2FE0BC039E4D3
:10479000D6013C933EE411963C93119736E4129671
:1047A0003C9307C039E6F60130833EE6318336E6B6
:1047B0003283FC01322F40E2332319F04193315010
:1047C000FBCFFC01E20FF11D10828EEF9FEFB7C00F
:1047D000F1E0911101C0F0E06F2F70E014161506A2
:1047E00024F49A012F5F3F4F02C021E030E0260FF2
:1047F000371FBB2029F06B2D70E06F5F7F4F02C029
:1048000060E070E0260F371F612F70E02617370732
:104810001CF4121B212F01C020E03E2D387159F4E9
:10482000D601322F60E2332319F06D933150FBCF64
:10483000C20ED11C20E0FF2331F0D6019C93B601BB
:104840006F5F7F4F6B01E1110BC0F601922F30E3D8
:10485000992319F031939150FBCFC20ED11C20E067
:104860009F2D940F3A81782F7071A72E84FF03C07B
:10487000313309F49150191624F4993018F098E066
:1048800001C091E0E42F852F57FF02C0E0E080E0F7
:104890006E2F782FE0E0F0E0AEE29A2E3A01691A2E
:1048A00071082A01461A570A0B2D10E0119501953F
:1048B00011096F3F8FEF780729F4D6019C92C6014A
:1048C00001966C014617570784F0661677066CF45C
:1048D0007F01E40CF51CA1E0B0E0AC0FBD1FEA0EB7
:1048E000FB1ED7011196BC9002C090E3B92E615017
:1048F00071093196C60101967C016017710724F099
:10490000D601BC926C01D5CF6417750741F43633DC
:1049100020F4353321F4A11002C081E3B82EF60152
:10492000B082F701822F90E2882319F09193815091
:10493000FBCFF701E20FF11D108280E090E0299695
:104940000FB6F894DEBF0FBECDBFDF91CF911F91A0
:104950000F91FF90EF90DF90CF90BF90AF909F901E
:104960007F906F905F904F900895283008F027E077
:104970003327DA01990F311D87FD9160009661059B
:10498000710539F432602E5F3D9330E32A95E1F7EB
:1049900008959F3F30F080387105610509F03C5F54
:1049A0003C5F3D93913008F08068911DDF93CF9379
:1049B0001F930F93FF92EF92192F987F9695E92FEF
:1049C00096959695E90FFF27EE53FF4F99273327CA
:1049D000EE24FF24A701E70105900894079428F42A
:1049E000360FE71EF81E491F511D660F771F881FDF
:1049F000991F0694A1F70590079428F4E70EF81E76
:104A0000491F561FC11D770F881F991F661F0694E7
:104A1000A1F70590079428F4F80E491F561FC71FE9
:104A2000D11D880F991F661F771F0694A1F7059067
:104A3000079420F4490F561FC71FD81F990F661FF0
:104A4000771F881F0694A9F784911095177041F07D
:104A5000D695C79557954795F794E7941A95C1F75A
:104A6000E8E6F0E06894159015913591659195917F
:104A700005907FE27395E118F10A430B560BC90BC1
:104A8000D009C0F7E10CF11E431F561FC91FD01DEE
:104A90007EF4703311F48A95E6CFE894015030F03B
:104AA000080F0AF40027021708F4202F2395022F7D
:104AB0007A3328F079E37D932A95E9F710C07D9346
:104AC0002A9589F6069497956795379517951794C3
:104AD000E118F10A430B560BC90BD00998F0239546
:104AE0007E9173957A3308F070E37C932013B8F7C6
:104AF0007E9170617D9330F0839571E37D9370E3D7
:104B00002A95E1F71124EF90FF900F911F91CF911B
:104B1000DF91992787FD9095089599278827089513
:104B2000FC010590615070400110D8F78095909578
:104B30008E0F9F1F0895FC0161507040019001107D
:104B4000D8F7809590958E0F9F1F0895DC01FC018A
:104B5000672F71917723E1F7329704C07C916D93B1
:104B600070836291AE17BF07C8F308950F931F9328
:104B7000CF93DF93FB01238121FD03C08FEF9FEFD4
:104B800028C022FF16C046815781248135814217F3
:104B9000530744F4A081B1819D012F5F3F4F3183C2
:104BA00020838C93268137812F5F3F4F3783268365
:104BB00010C0EB01092F182F0084F185E02D099515
:104BC000892BE1F68E819F8101969F838E83812FB1
:104BD000902FDF91CF911F910F910895FA01AA278D
:104BE000283051F1203181F1E8946F936E7F6E5F30
:104BF0007F4F8F4F9F4FAF4FB1E03ED0B4E03CD0DE
:104C0000670F781F891F9A1FA11D680F791F8A1FC0
:104C1000911DA11D6A0F711D811D911DA11D20D027
:104C200009F468943F912AE0269F11243019305DE1
:104C30003193DEF6CF010895462F4770405D4193D2
:104C4000B3E00FD0C9F7F6CF462F4F70405D4A331F
:104C500018F0495D31FD4052419302D0A9F7EACFE7
:104C6000B4E0A6959795879577956795BA95C9F716
:104C700000976105710508959B01AC010A2E069409
:104C80005795479537952795BA95C9F7620F731FC2
:104C9000841F951FA01D08950E948E2608F481E0B0
:104CA0000895E89409C097FB3EF49095809570951F
:104CB00061957F4F8F4F9F4F9923A9F0F92F96E968
:104CC000BB279395F695879577956795B795F111DD
:104CD000F8CFFAF4BB0F11F460FF1BC06F5F7F4F7A
:104CE0008F4F9F4F16C0882311F096E911C077238C
:104CF00021F09EE8872F762F05C0662371F096E895
:104D0000862F70E060E02AF09A95660F771F881F63
:104D1000DAF7880F9695879597F90895990F000807
:104D2000550FAA0BE0E8FEEF16161706E807F9077D
:104D3000C0F012161306E407F50798F0621B730B18
:104D4000840B950B39F40A2661F0232B242B252B99
:104D500021F408950A2609F4A140A6958FEF811D3C
:104D6000811D08950E94C5260C9436270E9428278D
:104D700038F00E942F2720F0952311F00C941F2764
:104D80000C94252711240C946A270E94472770F35E
:104D9000959FC1F3950F50E0551F629FF001729FE0
:104DA000BB27F00DB11D639FAA27F00DB11DAA1FEF
:104DB000649F6627B00DA11D661F829F2227B00D3C
:104DC000A11D621F739FB00DA11D621F839FA00DC7
:104DD000611D221F749F3327A00D611D231F849F17
:104DE000600D211D822F762F6A2F11249F5750406E
:104DF0009AF0F1F088234AF0EE0FFF1FBB1F661FE9
:104E0000771F881F91505040A9F79E3F510580F0B1
:104E10000C941F270C946A275F3FE4F3983ED4F369
:104E2000869577956795B795F795E7959F5FC1F755
:104E3000FE2B880F911D9695879597F9089597F900
:104E40009F6780E870E060E008959FEF80EC089530
:104E500000240A9416161706180609060895002459
:104E60000A9412161306140605060895092E0394D3
:104E7000000C11F4882352F0BB0F40F4BF2B11F447
:104E800060FF04C06F5F7F4F8F4F9F4F089557FDA6
:104E90009058440F551F59F05F3F71F04795880FA8
:104EA00097FB991F61F09F3F79F08795089512163F
:104EB00013061406551FF2CF4695F1DF08C01616EB
:104EC00017061806991FF1CF86957105610508949C
:104ED0000895E894BB2766277727CB0197F90895B3
:104EE000DC01CB01FC01F999FECF06C0F2BDE1BDAA
:104EF000F89A319600B40D9241505040B8F7089599
:104F0000F999FECF92BD81BDF89A992780B5089591
:104F1000DC01A40FB51F4150504048F0CB01840F75
:104F2000951F2E910E94992741505040D0F7089527
:104F3000262FF999FECF92BD81BDF89A019700B452
:104F4000021639F01FBA20BD0FB6F894FA9AF99AF2
:104F50000FBE0895DB018F939F930E94FB27BF91A3
:104F6000AF91A29F800D911DA39F900DB29F900DB8
:104F700011240895A1E21A2EAA1BBB1BFD010DC02E
:104F8000AA1FBB1FEE1FFF1FA217B307E407F507F9
:104F900020F0A21BB30BE40BF50B661F771F881FD5
:104FA000991F1A9469F760957095809590959B016B
:104FB000AC01BD01CF010895052E97FB1EF40094AE
:104FC0000E94F32757FD07D00E94BA2707FC03D0A1
:104FD0004EF40C94F32750954095309521953F4F12
:104FE0004F4F5F4F089590958095709561957F4FD5
:104FF0008F4F9F4F08950E943D28A59F900DB49F0D
:10500000900DA49F800D911D112408952F923F9221
:105010004F925F926F927F928F929F92AF92BF92C8
:10502000CF92DF92EF92FF920F931F93CF93DF9374
:10503000CDB7DEB7CA1BDB0B0FB6F894DEBF0FBED1
:10504000CDBF09942A88398848885F846E847D841E
:105050008C849B84AA84B984C884DF80EE80FD8020
:105060000C811B81AA81B981CE0FD11D0FB6F89496
:10507000DEBF0FBECDBFED010895A29FB001B39F6B
:10508000C001A39F700D811D1124911DB29F700D51
:10509000811D1124911D08955058BB27AA270E94F5
:1050A00064280C9436270E94282738F00E942F2766
:1050B00020F039F49F3F19F426F40C9425270EF4C0
:1050C000E095E7FB0C941F27E92F0E94472758F330
:1050D000BA17620773078407950720F079F4A6F5DD
:1050E0000C9469270EF4E0950B2EBA2FA02D0B011E
:1050F000B90190010C01CA01A0011124FF27591B1D
:1051000099F0593F50F4503E68F11A16F040A22F22
:10511000232F342F4427585FF3CF46953795279593
:10512000A795F0405395C9F77EF41F16BA0B620B92
:10513000730B840BBAF09150A1F0FF0FBB1F661FD9
:10514000771F881FC2F70EC0BA0F621F731F841F1C
:1051500048F4879577956795B795F7959E3F08F042
:10516000B0CF9395880F08F09927EE0F9795879504
:1051700008950E948E26880B990B0895AA1BBB1BCD
:1051800051E107C0AA1FBB1FA617B70710F0A61B47
:10519000B70B881F991F5A95A9F780959095BC0168
:1051A000CD0108950E943D28B7FF0895821B930BFF
:1051B0000895EE0FFF1F0590F491E02D0994A0E0F3
:1051C000B0E0E5EEF8E20C940A28EC01009721F437
:1051D000CB010E942A1EB8C0FC01E60FF71F9C01FC
:1051E00022503109E217F30708F4ACC0D9010D9140
:1051F0001C91119706171707B0F00530110508F438
:105200009FC0C80104978617970708F499C00250F9
:105210001109061B170B019311936D937C93CF011A
:105220000E94BF1E8DC05B01A01AB10A4C01800E06
:10523000911EA0912F05B091300540E050E0E12C87
:10524000F12C109709F44AC0A815B905D1F56D9055
:105250007C901197630182E0C80ED11CCA14DB0454
:1052600080F1A3014A195B096A0182E0C80ED11CD2
:105270001296BC9012971396AC91B5E0CB16D10460
:1052800040F0B282A38351834083D9016D937C9314
:105290000AC00E5F1F4FC301800F911FF901918358
:1052A0008083EB2DFA2FE114F10431F0D70113962E
:1052B000FC93EE93129744C0F0933005E0932F05D2
:1052C0003FC08D919C9111974817590708F4AC0184
:1052D0007D0112960D90BC91A02DB3CF80912D052C
:1052E00090912E0588159905E1F446175707C8F4E3
:1052F00080912F0190913001009741F48DB79EB7B6
:105300004091330150913401841B950BE817F90744
:10531000C8F4F0932E05E0932D05F90171836083A5
:105320000FC0CB010E942A1E7C01009759F0A801F2
:10533000BE010E94AE29CE010E94BF1EC70104C05B
:10534000CE0102C080E090E0CDB7DEB7EEE00C9475
:10535000262881E090E0F8940C94D429FB01DC012C
:1053600002C001900D9241505040D8F70895DC01E1
:1053700001C06D9341505040E0F70895FB01DC01FE
:1053800001900D920020E1F70895FB01DC014150EE
:10539000504048F001900D920020C9F701C01D92C5
:1053A00041505040E0F7089513E0CCE3D3E004C04F
:1053B000FE010E94D9282196CD33D107C9F7F89470
:0253C000FFCF1D
:1053C200FFFFFF00FCE1A8A8FC06C2069F064406F8
:1053D200180606066F072507FF500895071400FFF9
:1053E20000FF004B007F00CA05A2053113311300F4
:1053F200003305800000000000C51332135D130C5A
:10540200148E136C13801300000000BB1A8B1A5603
:105412001A38144D1A391A2A1A4F4B004E41434B6F
:1054220000210056616C203D20004661696C656474
:105432002072656164696E672074656D7065726162
:10544200747572652066726F6D2073656E736F720C
:10545200000D0A004661696C6564207265616469C9
:105462006E672068756D69646974792066726F6D04
:105472002073656E736F7200524544203D200047D1
:105482005245454E203D2000424C5545203D2000CE
:105492004252494748544E455353203D20005465DB
:1054A2006D706F203D004D7953656E736F72735F3F
:1054B2005665696C6C6575736500312E3200322E4B
:0454C200312E310056
:00000001FF
